{
  "_format": "hh-sol-artifact-1",
  "contractName": "Staking",
  "sourceName": "contracts/Staking.sol",
  "abi": [
    {
      "inputs": [
        {
          "internalType": "address",
          "name": "_usdtAddress",
          "type": "address"
        },
        {
          "internalType": "address",
          "name": "_wethAddress",
          "type": "address"
        },
        {
          "internalType": "address",
          "name": "_wbtcAddress",
          "type": "address"
        },
        {
          "internalType": "address",
          "name": "initialOwner",
          "type": "address"
        }
      ],
      "stateMutability": "nonpayable",
      "type": "constructor"
    },
    {
      "inputs": [
        {
          "internalType": "address",
          "name": "target",
          "type": "address"
        }
      ],
      "name": "AddressEmptyCode",
      "type": "error"
    },
    {
      "inputs": [
        {
          "internalType": "address",
          "name": "account",
          "type": "address"
        }
      ],
      "name": "AddressInsufficientBalance",
      "type": "error"
    },
    {
      "inputs": [],
      "name": "FailedInnerCall",
      "type": "error"
    },
    {
      "inputs": [
        {
          "internalType": "address",
          "name": "owner",
          "type": "address"
        }
      ],
      "name": "OwnableInvalidOwner",
      "type": "error"
    },
    {
      "inputs": [
        {
          "internalType": "address",
          "name": "account",
          "type": "address"
        }
      ],
      "name": "OwnableUnauthorizedAccount",
      "type": "error"
    },
    {
      "inputs": [
        {
          "internalType": "address",
          "name": "token",
          "type": "address"
        }
      ],
      "name": "SafeERC20FailedOperation",
      "type": "error"
    },
    {
      "anonymous": false,
      "inputs": [
        {
          "indexed": true,
          "internalType": "address",
          "name": "previousOwner",
          "type": "address"
        },
        {
          "indexed": true,
          "internalType": "address",
          "name": "newOwner",
          "type": "address"
        }
      ],
      "name": "OwnershipTransferred",
      "type": "event"
    },
    {
      "anonymous": false,
      "inputs": [
        {
          "indexed": true,
          "internalType": "address",
          "name": "stakerAddress",
          "type": "address"
        },
        {
          "indexed": false,
          "internalType": "address",
          "name": "tokenAddress",
          "type": "address"
        },
        {
          "indexed": false,
          "internalType": "uint256",
          "name": "amount",
          "type": "uint256"
        }
      ],
      "name": "Staked",
      "type": "event"
    },
    {
      "anonymous": false,
      "inputs": [
        {
          "indexed": true,
          "internalType": "address",
          "name": "stakerAddress",
          "type": "address"
        },
        {
          "indexed": false,
          "internalType": "address",
          "name": "tokenAddress",
          "type": "address"
        },
        {
          "indexed": false,
          "internalType": "uint256",
          "name": "amount",
          "type": "uint256"
        }
      ],
      "name": "Unstaked",
      "type": "event"
    },
    {
      "anonymous": false,
      "inputs": [
        {
          "indexed": false,
          "internalType": "address",
          "name": "stakerAddress",
          "type": "address"
        },
        {
          "indexed": false,
          "internalType": "address",
          "name": "tokenAddress",
          "type": "address"
        },
        {
          "indexed": false,
          "internalType": "uint256",
          "name": "amount",
          "type": "uint256"
        }
      ],
      "name": "Withdrawn",
      "type": "event"
    },
    {
      "inputs": [],
      "name": "USDT",
      "outputs": [
        {
          "internalType": "contract IERC20",
          "name": "",
          "type": "address"
        }
      ],
      "stateMutability": "view",
      "type": "function"
    },
    {
      "inputs": [],
      "name": "WBTC",
      "outputs": [
        {
          "internalType": "contract IERC20",
          "name": "",
          "type": "address"
        }
      ],
      "stateMutability": "view",
      "type": "function"
    },
    {
      "inputs": [],
      "name": "WETH",
      "outputs": [
        {
          "internalType": "contract IERC20",
          "name": "",
          "type": "address"
        }
      ],
      "stateMutability": "view",
      "type": "function"
    },
    {
      "inputs": [],
      "name": "owner",
      "outputs": [
        {
          "internalType": "address",
          "name": "",
          "type": "address"
        }
      ],
      "stateMutability": "view",
      "type": "function"
    },
    {
      "inputs": [],
      "name": "renounceOwnership",
      "outputs": [],
      "stateMutability": "nonpayable",
      "type": "function"
    },
    {
      "inputs": [
        {
          "internalType": "address",
          "name": "tokenAddress",
          "type": "address"
        },
        {
          "internalType": "uint8",
          "name": "durationInMonths",
          "type": "uint8"
        },
        {
          "internalType": "uint256",
          "name": "amount",
          "type": "uint256"
        }
      ],
      "name": "stake",
      "outputs": [],
      "stateMutability": "nonpayable",
      "type": "function"
    },
    {
      "inputs": [
        {
          "internalType": "address",
          "name": "",
          "type": "address"
        }
      ],
      "name": "totalStakedAmount",
      "outputs": [
        {
          "internalType": "uint256",
          "name": "",
          "type": "uint256"
        }
      ],
      "stateMutability": "view",
      "type": "function"
    },
    {
      "inputs": [
        {
          "internalType": "address",
          "name": "newOwner",
          "type": "address"
        }
      ],
      "name": "transferOwnership",
      "outputs": [],
      "stateMutability": "nonpayable",
      "type": "function"
    },
    {
      "inputs": [
        {
          "internalType": "address",
          "name": "tokenAddress",
          "type": "address"
        }
      ],
      "name": "unstake",
      "outputs": [],
      "stateMutability": "nonpayable",
      "type": "function"
    },
    {
      "inputs": [
        {
          "internalType": "address",
          "name": "",
          "type": "address"
        },
        {
          "internalType": "address",
          "name": "",
          "type": "address"
        }
      ],
      "name": "userStakeInfos",
      "outputs": [
        {
          "internalType": "uint256",
          "name": "stakedAmount",
          "type": "uint256"
        },
        {
          "internalType": "uint256",
          "name": "stakedAt",
          "type": "uint256"
        },
        {
          "internalType": "uint256",
          "name": "stakeEnd",
          "type": "uint256"
        },
        {
          "internalType": "uint256",
          "name": "rewards",
          "type": "uint256"
        }
      ],
      "stateMutability": "view",
      "type": "function"
    },
    {
      "inputs": [
        {
          "internalType": "address",
          "name": "tokenAddress",
          "type": "address"
        },
        {
          "internalType": "uint256",
          "name": "amount",
          "type": "uint256"
        }
      ],
      "name": "withdraw",
      "outputs": [],
      "stateMutability": "nonpayable",
      "type": "function"
    }
  ],
  "bytecode": "0x6080604052600f600555601860065560246007553480156200002057600080fd5b506040516200110738038062001107833981016040819052620000439162000130565b806001600160a01b0381166200007357604051631e4fbdf760e01b81526000600482015260240160405180910390fd5b6200007e81620000c3565b5050600180546001600160a01b039485166001600160a01b0319918216179091556002805493851693821693909317909255600380549190931691161790556200018d565b600080546001600160a01b038381166001600160a01b0319831681178455604051919092169283917f8be0079c531659141344cd1fd0a4f28419497f9722a3daafe3b4186f6b6457e09190a35050565b80516001600160a01b03811681146200012b57600080fd5b919050565b600080600080608085870312156200014757600080fd5b620001528562000113565b9350620001626020860162000113565b9250620001726040860162000113565b9150620001826060860162000113565b905092959194509250565b610f6a806200019d6000396000f3fe608060405234801561001057600080fd5b50600436106100c95760003560e01c8063ad5c464811610081578063f2fde38b1161005b578063f2fde38b146101c5578063f3dbdfe5146101d8578063f3fef3a31461020657600080fd5b8063ad5c46481461018c578063c54e44eb1461019f578063f2888dbb146101b257600080fd5b8063715018a6116100b2578063715018a61461015e5780637befa74f146101685780638da5cb5b1461017b57600080fd5b806315d748c4146100ce5780634dede3de14610133575b600080fd5b61010e6100dc366004610d98565b600860209081526000928352604080842090915290825290208054600182015460028301546003909301549192909184565b6040805194855260208501939093529183015260608201526080015b60405180910390f35b600354610146906001600160a01b031681565b6040516001600160a01b03909116815260200161012a565b610166610219565b005b610166610176366004610dcb565b61022d565b6000546001600160a01b0316610146565b600254610146906001600160a01b031681565b600154610146906001600160a01b031681565b6101666101c0366004610e10565b6103ee565b6101666101d3366004610e10565b6104f8565b6101f86101e6366004610e10565b60046020526000908152604090205481565b60405190815260200161012a565b610166610214366004610e2b565b61054c565b610221610692565b61022b60006106d8565b565b6001546001600160a01b038481169116148061025657506003546001600160a01b038481169116145b8061026e57506002546001600160a01b038481169116145b6102bf5760405162461bcd60e51b815260206004820152601560248201527f496e76616c696420746f6b656e2061646472657373000000000000000000000060448201526064015b60405180910390fd5b8160ff16600114806102d457508160ff166006145b806102e257508160ff16600c145b61032e5760405162461bcd60e51b815260206004820152601860248201527f496e76616c6964207374616b696e67206475726174696f6e000000000000000060448201526064016102b6565b3360009081526008602090815260408083206001600160a01b0387168452909152902054156103c55760405162461bcd60e51b815260206004820152602260248201527f596f75206861766520616c7265616479207374616b6564207468697320746f6b60448201527f656e00000000000000000000000000000000000000000000000000000000000060648201526084016102b6565b6103da6001600160a01b038416333084610740565b6103e933848460ff16846107c2565b505050565b6001546001600160a01b038281169116148061041757506003546001600160a01b038281169116145b8061042f57506002546001600160a01b038281169116145b61047b5760405162461bcd60e51b815260206004820152601560248201527f496e76616c696420746f6b656e2061646472657373000000000000000000000060448201526064016102b6565b3360009081526008602090815260408083206001600160a01b03851684529091529020546104eb5760405162461bcd60e51b815260206004820152600f60248201527f4e6f207374616b656420746f6b656e000000000000000000000000000000000060448201526064016102b6565b6104f533826108e1565b50565b610500610692565b6001600160a01b038116610543576040517f1e4fbdf7000000000000000000000000000000000000000000000000000000008152600060048201526024016102b6565b6104f5816106d8565b610554610692565b6040516370a0823160e01b815230600482015281906001600160a01b038416906370a0823190602401602060405180830381865afa15801561059a573d6000803e3d6000fd5b505050506040513d601f19601f820116820180604052508101906105be9190610e55565b101561060c5760405162461bcd60e51b815260206004820152601460248201527f496e73756666696369656e742062616c616e636500000000000000000000000060448201526064016102b6565b6106326106216000546001600160a01b031690565b6001600160a01b0384169083610aa3565b7fd1c19fbcd4551a5edfb66d43d2e337c04837afda3482b42bdf569a8fccdae5fb6106656000546001600160a01b031690565b604080516001600160a01b0392831681529185166020830152810183905260600160405180910390a15050565b6000546001600160a01b0316331461022b576040517f118cdaa70000000000000000000000000000000000000000000000000000000081523360048201526024016102b6565b600080546001600160a01b038381167fffffffffffffffffffffffff0000000000000000000000000000000000000000831681178455604051919092169283917f8be0079c531659141344cd1fd0a4f28419497f9722a3daafe3b4186f6b6457e09190a35050565b6040516001600160a01b0384811660248301528381166044830152606482018390526107bc9186918216906323b872dd906084015b604051602081830303815290604052915060e01b6020820180517bffffffffffffffffffffffffffffffffffffffffffffffffffffffff8381831617835250505050610ad4565b50505050565b6001600160a01b0384811660009081526008602090815260408083209387168352929052208181554260019091018190556108008362278d00610e84565b61080a9082610e9b565b6001600160a01b0380871660009081526008602090815260408083209389168352929052206002015561083d8383610b50565b6001600160a01b038087166000908152600860209081526040808320938916835292815282822060030193909355600490925290205461087e908390610e9b565b6001600160a01b03808616600081815260046020908152604091829020949094558051918252928101859052908716917f5dac0c1b1112564a045ba943c9d50270893e8e826c49be8e7073adc713ab7bd791015b60405180910390a25050505050565b6001600160a01b0380831660009081526008602090815260408083209385168352929052908120805490916109168585610b98565b6001600160a01b038516600090815260046020526040902054909150819061093f908490610eae565b6109499190610eae565b6001600160a01b0385166000818152600460208190526040808320949094558187556001870182905560028701829055600387019190915591516370a0823160e01b81523092810192909252906370a0823190602401602060405180830381865afa1580156109bc573d6000803e3d6000fd5b505050506040513d601f19601f820116820180604052508101906109e09190610e55565b821015610a2f5760405162461bcd60e51b815260206004820152601c60248201527f496e73756666696369656e7420616d6f756e74206f6620746f6b656e0000000060448201526064016102b6565b610a4e85610a3d8385610e9b565b6001600160a01b0387169190610aa3565b6001600160a01b0385167fd8654fcc8cf5b36d30b3f5e4688fc78118e6d68de60b9994e09902268b57c3e385610a848486610e9b565b604080516001600160a01b0390931683526020830191909152016108d2565b6040516001600160a01b038381166024830152604482018390526103e991859182169063a9059cbb90606401610775565b6000610ae96001600160a01b03841683610bfa565b90508051600014158015610b0e575080806020019051810190610b0c9190610ec1565b155b156103e9576040517f5274afe70000000000000000000000000000000000000000000000000000000081526001600160a01b03841660048201526024016102b6565b60008083600103610b645750600554610b7a565b83600603610b755750600654610b7a565b506007545b6064610b868285610e84565b610b909190610ee3565b949350505050565b6001600160a01b03808316600090815260086020908152604080832093851683529290529081206002810154421015610bed578054606490610bdb906006610e84565b610be59190610ee3565b915050610bf4565b6003015490505b92915050565b6060610c0883836000610c0f565b9392505050565b606081471015610c4d576040517fcd7860590000000000000000000000000000000000000000000000000000000081523060048201526024016102b6565b600080856001600160a01b03168486604051610c699190610f05565b60006040518083038185875af1925050503d8060008114610ca6576040519150601f19603f3d011682016040523d82523d6000602084013e610cab565b606091505b5091509150610cbb868383610cc5565b9695505050505050565b606082610cda57610cd582610d3a565b610c08565b8151158015610cf157506001600160a01b0384163b155b15610d33576040517f9996b3150000000000000000000000000000000000000000000000000000000081526001600160a01b03851660048201526024016102b6565b5080610c08565b805115610d4a5780518082602001fd5b6040517f1425ea4200000000000000000000000000000000000000000000000000000000815260040160405180910390fd5b80356001600160a01b0381168114610d9357600080fd5b919050565b60008060408385031215610dab57600080fd5b610db483610d7c565b9150610dc260208401610d7c565b90509250929050565b600080600060608486031215610de057600080fd5b610de984610d7c565b9250602084013560ff81168114610dff57600080fd5b929592945050506040919091013590565b600060208284031215610e2257600080fd5b610c0882610d7c565b60008060408385031215610e3e57600080fd5b610e4783610d7c565b946020939093013593505050565b600060208284031215610e6757600080fd5b5051919050565b634e487b7160e01b600052601160045260246000fd5b8082028115828204841417610bf457610bf4610e6e565b80820180821115610bf457610bf4610e6e565b81810381811115610bf457610bf4610e6e565b600060208284031215610ed357600080fd5b81518015158114610c0857600080fd5b600082610f0057634e487b7160e01b600052601260045260246000fd5b500490565b6000825160005b81811015610f265760208186018101518583015201610f0c565b50600092019182525091905056fea264697066735822122070ccf7a365b92b400f8cf205bcbc050741ca336dd048a37a2a1b2fbb8edd383764736f6c63430008140033",
  "linkReferences": {},
  "deployedLinkReferences": {}
}